:020000040000FA
:0A000000A304020A6400A304000B2D
:1001CC0068000402A4023F0EE2010008FF08FF08C9
:1001DC00FF08FF08FF08FF08FF08FF08FF08FF08DB
:1001EC00FF08FF08FF08FF08FF08FF08FF08FF08CB
:1001FC00FF08FF08800C02003E0C0600A4046600F9
:10020C00120B0D0CA4043100FB0C3000F0020C0B93
:10021C00F1020C0B0000120BA4044607160B170B73
:10022C00070B180B080C060086054604A6042604CA
:10023C00820CA4043100DD0C3000F002230BF1021F
:10024C00230B0000A4047200730013022F0012028F
:10025C002E000F02800F2800800C88004307380BFB
:10026C00140C8E0003073B0B3C0B3E0BA30BA30B98
:10027C00070CA4043400000C3500F507460B470BA3
:10028C00490B880B880B94022F0012022E00010CD4
:10029C00CE012400A304E709A3042E00570B03048A
:1002AC002E03EF02550B0E065C0B5F0BA404A60588
:1002BC00610BA404A6042605070CA40431007C0CD5
:1002CC003000F002670BF102670B6C0BA4042604E0
:1002DC00070CA40431007C0C3000F002730BF1020B
:1002EC00730B780BFF0C2E00FF0C2F000E02A404D6
:1002FC00F4010306B5020F02F501F507860B870B17
:10030C00490B880B010C2E006F000E02F201030644
:10031C00B3020F02F30113022F0012022E000F0280
:10032C00800F2800800C880043079E0B140C8E0055
:10033C000307A10BA20B3E0BA30B3E0C0600030004
:04034C00A304000AFC
:021FFE00EAFFF8
:00000001FF
